:100000000C9434000C943E000C943E000C943E0082
:100010000C943E000C943E000C943E000C943E0068
:100020000C943E000C943E000C943E000C943E0058
:100030000C943E000C943E000C943E000C943E0048
:100040000C943E000C943E000C943E000C943E0038
:100050000C943E000C943E000C943E000C943E0028
:100060000C943E000C943E0011241FBECFEFD8E04C
:10007000DEBFCDBF0E9440000C945E000C940000D7
:10008000CF93DF93CDB7DEB78AE290E02FEFFC018C
:10009000208384E490E023EAFC01208385E490E05F
:1000A00023E0FC01208387E490E020ECFC01208326
:1000B00088E490E020E4FC012083FFCFF894FFCF98
:00000001FF
