S015000054696D65725F436170747572612E73726563DF
S11300000C9434000C9446000C9446000C94460066
S11300100C9446000C9446000C9446000C94460044
S11300200C9446000C9446000C9448000C94460032
S11300300C9446000C9446000C9446000C94460024
S11300400C9446000C9446000C9446000C94460014
S11300500C9446000C9446000C9446000C94460004
S11300600C9446000C94460011241FBECFEFD8E038
S1130070DEBFCDBF21E0A0E0B1E001C01D92A830F9
S1130080B207E1F70E94B0000C94E2000C94000067
S11300901F920F920FB60F9211244F935F936F9399
S11300A07F938F939F93AF93BF93EF93FF9380912D
S11300B0810086FF0FC08091860090918700A0E0A8
S11300C0B0E08093040190930501A0930601B093DE
S11300D007012AC08091860090918700A0E0B0E0DB
S11300E0409104015091050160910601709107014E
S11300F0841B950BA60BB70B880F991FAA1FBB1F58
S1130100880F991FAA1FBB1F880F991FAA1FBB1F07
S1130110880F991FAA1FBB1F8093000190930101B0
S1130120A0930201B0930301E1E8F0E0908180E440
S113013089278083FF91EF91BF91AF919F918F9118
S11301407F916F915F914F910F900FBE0F901F9011
S113015018959091C00095FFFCCF8093C600089538
S113016084B18E7F84B985B1816085B91092C50050
S11301708FEF8093C40088E18093C1008EE0809368
S1130180C20084E48093810080E280936F007894BD
S1130190809103010E94A900809102010E94A9009C
S11301A0809101010E94A900809100010E94A90090
S11301B02FEF83ED90E3215080409040E1F700C0A1
S10B01C00000E6CFF894FFCF24
S9030000FC
