S00B00004144432E7372656351
S11300000C9434000C9446000C9446000C94460066
S11300100C9446000C9446000C9446000C94460044
S11300200C9446000C9446000C9446000C94460034
S11300300C9446000C9446000C9446000C94460024
S11300400C9446000C9446000C9446000C94460014
S11300500C9446000C9448000C9446000C94460002
S11300600C9446000C94460011241FBECFEFD8E038
S1130070DEBFCDBF21E0A0E0B1E001C01D92A230FF
S1130080B207E1F70E9465000C9491000C94000003
S11300901F920F920FB60F9211248F939F9380910A
S11300A078009091790090930101809300019F91D1
S11300B08F910F900FBE0F901F9018959091C000D4
S11300C095FFFCCF8093C600089517B88EEF88B9CA
S11300D080EC80937C008FEE80937A0010927B00FA
S11300E08EE380937E001092C5008FEF8093C4004E
S11300F088E18093C1008EE08093C200789480915F
S113010001010E945E00809100010E945E002FEFB9
S113011083ED90E3215080409040E1F700C000005F
S1090120EECFF894FFCFBE
S9030000FC
