:100000000C9434000C943E000C943E000C943E0082
:100010000C943E000C943E000C943E000C943E0068
:100020000C943E000C943E000C943E000C943E0058
:100030000C943E000C943E000C943E000C943E0048
:100040000C943E000C943E000C943E000C943E0038
:100050000C943E000C943E000C943E000C943E0028
:100060000C943E000C943E0011241FBECFEFD8E04C
:10007000DEBFCDBF0E947F000C9438040C940000BA
:10008000CF93DF9300D0CDB7DEB79A83898385EC19
:1000900090E029813A81232F3327FC01208384ECCF
:1000A00090E02981FC01208381EC90E028E1FC01B3
:1000B000208382EC90E02EE0FC01208300000F9072
:1000C0000F90DF91CF910895CF93DF931F92CDB71B
:1000D000DEB78983000080EC90E0FC018081882FEE
:1000E00090E080729927892BB1F386EC90E029810A
:1000F000FC01208300000F90DF91CF9108950F93B2
:100100001F93CF93DF93CDB7DEB7C654D1090FB697
:10011000F894DEBF0FBECDBF87E690E00E9440009E
:1001200085E70E94640080E090E0A8E4B3E489835E
:100130009A83AB83BC8320E030E04AE755E46981D1
:100140007A818B819C810E94A303DC01CB019E01FB
:10015000235C3F4FF90180839183A283B38320E026
:1001600030E040E85FE3CE01CD96FC016081718113
:10017000828193810E941D0388234CF4CE018F5B02
:100180009F4F21E030E0FC013183208367C020E0F5
:100190003FEF4FE757E4CE01CD96FC0160817181BE
:1001A000828193810E949E0318160CF046C020E0C5
:1001B00030E040E251E469817A818B819C810E9428
:1001C000A303DC01CB018E010F5B1F4FBC01CD01EE
:1001D0000E942203DC01CB01F8019183808324C0BB
:1001E000CE018D5B9F4F20E931E0FC0131832083FC
:1001F000CE018D5B9F4FFC01808191810197F1F7CA
:100200009E012D5B3F4FF90191838083CE018F5B6F
:100210009F4F9E012F5B3F4FF9012081318121507B
:100220003109FC0131832083CE018F5B9F4FFC019C
:1002300080819181892BA1F62BC08E010F5B1F4F0E
:10024000CE01CD96FC0160817181828193810E94F3
:100250002203DC01CB01F80191838083CE018B5B0B
:100260009F4F9E012F5B3F4FF90120813181FC019F
:1002700031832083CE018B5B9F4FFC018081918174
:100280000197F1F79E012B5B3F4FF901918380832A
:1002900081E60E94640080E090E0A8E4B3E48D83EE
:1002A0009E83AF83B88720E030E04AE755E46D8154
:1002B0007E818F8198850E94A303DC01CB018BABEB
:1002C0009CABADABBEAB20E030E040E85FE36BA998
:1002D0007CA98DA99EA90E941D0388232CF481E08E
:1002E00090E098AF8FAB3FC020E03FEF4FE757E47F
:1002F0006BA97CA98DA99EA90E949E0318164CF596
:1003000020E030E040E251E46D817E818F8198856C
:100310000E94A303DC01CB01BC01CD010E9422039A
:10032000DC01CB0198AF8FAB0FC080E991E09AAFB1
:1003300089AF89AD9AAD0197F1F79AAF89AF8FA9CF
:1003400098AD019798AF8FAB8FA998AD892B69F7BE
:1003500014C06BA97CA98DA99EA90E942203DC016F
:10036000CB0198AF8FAB8FA998AD9CAF8BAF8BAD06
:100370009CAD0197F1F79CAF8BAF82E70E946400C0
:1003800080E090E0A8E4B3E489879A87AB87BC87D4
:1003900020E030E04AE755E469857A858B859C85C5
:1003A0000E94A303DC01CB0189A79AA7ABA7BCA736
:1003B00020E030E040E85FE369A57AA58BA59CA525
:1003C0000E941D0388232CF481E090E09EA78DA756
:1003D0003FC020E03FEF4FE757E469A57AA58BA522
:1003E0009CA50E949E0318164CF520E030E040E2E8
:1003F00051E469857A858B859C850E94A303DC0185
:10040000CB01BC01CD010E942203DC01CB019EA7E0
:100410008DA70FC080E991E098AB8FA78FA598A911
:100420000197F1F798AB8FA78DA59EA501979EA781
:100430008DA78DA59EA5892B69F714C069A57AA5FE
:100440008BA59CA50E942203DC01CB019EA78DA752
:100450008DA59EA59AAB89AB89A99AA90197F1F7B9
:100460009AAB89AB84E70E94640080E090E0A8E446
:10047000B3E48D879E87AF87B88B20E030E04AE7F2
:1004800055E46D857E858F8598890E94A303DC01E4
:10049000CB018F8F98A3A9A3BAA320E030E040E856
:1004A0005FE36F8D78A189A19AA10E941D03882323
:1004B0002CF481E090E09CA38BA33FC020E03FEFB1
:1004C0004FE757E46F8D78A189A19AA10E949E03FE
:1004D00018164CF520E030E040E251E46D857E8551
:1004E0008F8598890E94A303DC01CB01BC01CD015B
:1004F0000E942203DC01CB019CA38BA30FC080E9E7
:1005000091E09EA38DA38DA19EA10197F1F79EA3DB
:100510008DA38BA19CA101979CA38BA38BA19CA1D4
:10052000892B69F714C06F8D78A189A19AA10E94C7
:100530002203DC01CB019CA38BA38BA19CA198A7D8
:100540008FA38FA198A50197F1F798A78FA38AE0B1
:100550000E94640080E090E0A8E4B3E4898B9A8B69
:10056000AB8BBC8B20E030E04AE755E469897A899F
:100570008B899C890E94A303DC01CB018D8B9E8B10
:10058000AF8BB88F20E030E040E85FE36D897E8973
:100590008F89988D0E941D0388232CF481E090E0C0
:1005A0009A8F898F3FC020E03FEF4FE757E46D8976
:1005B0007E898F89988D0E949E0318164CF520E045
:1005C00030E040E251E469897A898B899C890E94F4
:1005D000A303DC01CB01BC01CD010E942203DC019D
:1005E000CB019A8F898F0FC080E991E09C8F8B8F10
:1005F0008B8D9C8D0197F1F79C8F8B8F898D9A8DB8
:1006000001979A8F898F898D9A8D892B69F714C0EC
:100610006D897E898F89988D0E942203DC01CB0130
:100620009A8F898F898D9A8D9E8F8D8F8D8D9E8DBE
:100630000197F1F79E8F8D8F73CD0E94510308F4BF
:1006400081E008950E947D0388F09F5798F0B92FAC
:100650009927B751B0F0E1F0660F771F881F991FF7
:100660001AF0BA95C9F714C0B13091F00E949703FF
:10067000B1E008950C949703672F782F8827B85F0F
:1006800039F0B93FCCF3869577956795B395D9F74F
:100690003EF490958095709561957F4F8F4F9F4F59
:1006A0000895990F0008550FAA0BE0E8FEEF161603
:1006B0001706E807F907C0F012161306E407F50756
:1006C00098F0621B730B840B950B39F40A2661F0CA
:1006D000232B242B252B21F408950A2609F4A1406D
:1006E000A6958FEF811D811D089557FD9058440FE9
:1006F000551F59F05F3F71F04795880F97FB991F81
:1007000061F09F3F79F0879508951216130614063D
:10071000551FF2CF4695F1DF08C0161617061806CA
:10072000991FF1CF86957105610508940895E894A5
:10073000BB2766277727CB0197F908950E945103BD
:1007400008F48FEF08950E94B6030C9427040E94CA
:10075000190438F00E94200420F0952311F00C9425
:1007600010040C94160411240C9498030E94750331
:1007700070F3959FC1F3950F50E0551F629FF001F4
:10078000729FBB27F00DB11D639FAA27F00DB11D0D
:10079000AA1F649F6627B00DA11D661F829F222796
:1007A000B00DA11D621F739FB00DA11D621F839F1D
:1007B000A00D611D221F749F3327A00D611D231FF3
:1007C000849F600D211D822F762F6A2F11249F5741
:1007D00050409AF0F1F088234AF0EE0FFF1FBB1F44
:1007E000661F771F881F91505040A9F79E3F510503
:1007F00080F00C9410040C9498035F3FE4F3983E4F
:10080000D4F3869577956795B795F795E7959F5FAC
:10081000C1F7FE2B880F911D9695879597F908953E
:1008200097F99F6780E870E060E008959FEF80ECA3
:10083000089500240A941616170618060906089546
:1008400000240A9412161306140605060895092EAC
:100850000394000C11F4882352F0BB0F40F4BF2B1B
:1008600011F460FF04C06F5F7F4F8F4F9F4F08955B
:04087000F894FFCF2A
:00000001FF
