S01300004C43445F484434343738302E737265634C
S11300000C9434000C943E000C943E000C943E007E
S11300100C943E000C943E000C943E000C943E0064
S11300200C943E000C943E000C943E000C943E0054
S11300300C943E000C943E000C943E000C943E0044
S11300400C943E000C943E000C943E000C943E0034
S11300500C943E000C943E000C943E000C943E0024
S11300600C943E000C943E0011241FBECFEFD8E048
S1130070DEBFCDBF0E9440000C9472100C940000AF
S1130080CF93DF93CDB7DEB72E970FB6F894DEBFCC
S11300900FBECDBF0E942B0A88E40E94DC0D85E4CC
S11300A00E94DC0D8CE40E94DC0D8CE40E94DC0DCB
S11300B08FE40E94DC0D80E090E0AAE7B4E4898339
S11300C09A83AB83BC8320E030E04AE753E4698140
S11300D07A818B819C810E940510DC01CB018D8388
S11300E09E83AF83B88720E030E040E85FE36D8112
S11300F07E818F8198850E94E50E88232CF481E00F
S113010090E09A8789873FC020E03FEF4FE757E4AC
S11301106D817E818F8198850E94001018164CF5A0
S113012020E030E040E251E469817A818B819C8156
S11301300E940510DC01CB01BC01CD010E945C0FC3
S1130140DC01CB019A8789870FC089E190E09C8705
S11301508B878B859C850197F1F79C878B87898595
S11301609A8501979A87898789859A85892B69F762
S113017014C06D817E818F8198850E945C0FDC01A3
S1130180CB019A87898789859A859E878D878D85F6
S11301909E850197F1F79E878D8780E090E02E96EB
S11301A00FB6F894DEBF0FBECDBFDF91CF91089597
S11301B0CF93DF93CDB7DEB7A2970FB6F894DEBF27
S11301C00FBECDBF89A36AA38BE290E02BE230E09F
S11301D0F90120812F7EFC0120838AA1882351F01C
S11301E08BE290E02BE230E0F90120812064FC01F5
S11301F0208309C08BE290E02BE230E0F9012081FA
S11302002F7BFC0120838BE290E02BE230E0F901AC
S11302102081322F307F29A1232BFC0120838BE204
S113022090E02BE230E0F90120812062FC01208380
S113023080E090E0A0E0BFE389839A83AB83BC8332
S11302402BEA3AEA4AEA5EE369817A818B819C81EE
S11302500E940510DC01CB018D839E83AF83B88798
S113026020E030E040E85EE369817A818B819C8103
S11302700E940510DC01CB0189879A87AB87BC8774
S113028020E030E040E85FE36D817E818F819885D6
S11302900E94E50E88231CF481E08D87B2C020E023
S11302A03FEF4FE757E469857A858B859C850E94EB
S11302B0001018160CF07BC020E030E04AE754E44C
S11302C069817A818B819C810E94EA0EDC01CB01D9
S11302D08E879F87A88BB98B20E030E04AE753E4F0
S11302E06E857F85888999890E940510DC01CB0180
S11302F08A8B9B8BAC8BBD8B20E030E040E85FE3C6
S11303006A897B898C899D890E94E50E88232CF457
S113031081E090E09F8B8E8B3FC020E03FEF4FE762
S113032057E46A897B898C899D890E94001018167C
S11303304CF520E030E040E251E46E857F85888909
S113034099890E940510DC01CB01BC01CD010E94FA
S11303505C0FDC01CB019F8B8E8B0FC089E190E099
S1130360998F888F888D998D0197F1F7998F888F50
S11303708E899F8901979F8B8E8B8E899F89892B6C
S113038069F73FC06A897B898C899D890E945C0FCB
S1130390DC01CB019F8B8E8B8E899F899B8F8A8FEB
S11303A08A8D9B8D0197F1F79B8F8A8F2AC020E05D
S11303B030E04FE753E46D817E818F8198850E9400
S11303C000101816ACF469857A858B859C850E948B
S11303D05C0FDC01CB019D8F8C8F8C8D9D8D9F8F4D
S11303E08E8F8E8D9F8D0197F1F79F8F8E8F0FC00B
S11303F06D817E818F8198850E945C0FDC01CB0129
S11304008D878D8588A388A18A95F1F788A38BE2CF
S113041090E02BE230E0F90120812F7DFC01208364
S11304200000A2960FB6F894DEBF0FBECDBFDF91D9
S1130430CF910895CF93DF9300D0CDB7DEB78983F2
S11304406A83898182958F706A810E94D80089812C
S11304508F706A810E94D80000000F900F90DF9186
S1130460CF9108950F931F93CF93DF93CDB7DEB74A
S1130470CA5AD1090FB6F894DEBF0FBECDBF8AE2C7
S113048090E02AE230E0F90120812064FC0120831D
S11304908AE290E02AE230E0F90120812061FC0147
S11304A020838AE290E02AE230E0F9012081206290
S11304B0FC0120838AE290E02AE230E0F901208105
S11304C02F60FC01208380E090E0A0E7B1E4898301
S11304D09A83AB83BC838E010F551F4F20E030E01D
S11304E04AE753E469817A818B819C810E940510DB
S11304F0DC01CB01F80180839183A283B383CE0115
S11305008F559F4F20E030E040E85FE3FC016081BD
S11305107181828193810E94E50E88234CF4CE017F
S11305208B559F4F21E030E0FC013183208369C06B
S1130530CE018F559F4F20E03FEF4FE757E4FC017A
S113054060817181828193810E94001018160CF0E1
S113055046C020E030E040E251E469817A818B8139
S11305609C810E940510DC01CB018E010B551F4FAD
S1130570BC01CD010E945C0FDC01CB01F801918329
S1130580808324C0CE0189559F4F29E130E0FC01CE
S113059031832083CE0189559F4FFC018081918155
S11305A00197F1F79E0129553F4FF901918380830B
S11305B0CE018B559F4F9E012B553F4FF901208152
S11305C0318121503109FC0131832083CE018B55C7
S11305D09F4FFC0180819181892BA1F62CC08E0153
S11305E00B551F4FCE018F559F4FFC0160817181C8
S11305F0828193810E945C0FDC01CB01F80191831D
S11306008083CE0187559F4F9E012B553F4FF901A3
S113061020813181FC0131832083CE0187559F4F96
S1130620FC01808191810197F1F79E0127553F4F8D
S1130630F9019183808360E083E00E94D80083E322
S113064093E3A3E8B0E48D839E83AF83B8878E01E0
S113065009561F4F20E030E04AE753E46D817E8164
S11306608F8198850E940510DC01CB01F8018083FD
S11306709183A283B383CE0189569F4F20E030E05B
S113068040E85FE3FC0160817181828193810E9473
S1130690E50E88234CF4CE0185569F4F21E030E0CF
S11306A0FC013183208369C0CE0189569F4F20E02D
S11306B03FEF4FE757E4FC016081718182819381B0
S11306C00E94001018160CF046C020E030E040E212
S11306D051E46D817E818F8198850E940510DC0133
S11306E0CB018E0105561F4FBC01CD010E945C0F4A
S11306F0DC01CB01F8019183808324C0CE018356B1
S11307009F4F29E130E0FC0131832083CE018356E1
S11307109F4FFC01808191810197F1F79E0123563F
S11307203F4FF90191838083CE0185569F4F9E01EF
S113073025563F4FF9012081318121503109FC01B7
S113074031832083CE0185569F4FFC0180819181A6
S1130750892BA1F62CC08E0105561F4FCE01895658
S11307609F4FFC0160817181828193810E945C0FA3
S1130770DC01CB01F80191838083CE0181569F4F28
S11307809E0125563F4FF90120813181FC013183BF
S11307902083CE0181569F4FFC0180819181019776
S11307A0F1F79E0121563F4FF9019183808360E068
S11307B083E00E94D8008DEC9CECACECBDE389870F
S11307C09A87AB87BC878E0103571F4F20E030E028
S11307D04AE753E469857A858B859C850E940510D8
S11307E0DC01CB01F80180839183A283B383CE0122
S11307F083579F4F20E030E040E85FE3FC016081D5
S11308007181828193810E94E50E88234CF4CE018C
S11308108F569F4F21E030E0FC013183208369C073
S1130820CE0183579F4F20E03FEF4FE757E4FC0191
S113083060817181828193810E94001018160CF0EE
S113084046C020E030E040E251E469857A858B853A
S11308509C850E940510DC01CB018E010F561F4FB1
S1130860BC01CD010E945C0FDC01CB01F801918336
S1130870808324C0CE018D569F4F29E130E0FC01D6
S113088031832083CE018D569F4FFC01808191815D
S11308900197F1F79E012D563F4FF9019183808313
S11308A0CE018F569F4F9E012F563F4FF901208155
S11308B0318121503109FC0131832083CE018F56CF
S11308C09F4FFC0180819181892BA1F62CC08E0160
S11308D00F561F4FCE0183579F4FFC0160817181DA
S11308E0828193810E945C0FDC01CB01F80191832A
S11308F08083CE018B569F4F9E012F563F4FF901A7
S113090020813181FC0131832083CE018B569F4F9E
S1130910FC01808191810197F1F79E012B563F4F95
S1130920F9019183808360E083E00E94D80080E035
S113093090E0A4E1B2E48D879E87AF87B88B8E01E7
S11309400F581F4F2BEA3AEA4AEA5EE36D857E852B
S11309508F8598890E940510DC01CB01F801808302
S11309609183A283B3838E010B581F4F20E030E0A4
S113097040E85EE36D857E858F8598890E94051029
S1130980DC01CB01F80180839183A283B383CE0180
S11309908F589F4F20E030E040E85FE3FC01608126
S11309A07181828193810E94E50E88233CF4CE01FB
S11309B087589F4F21E0FC0120832CC1CE018B5826
S11309C09F4F20E03FEF4FE757E4FC0160817181C6
S11309D0828193810E94001018160CF0CDC020E093
S11309E030E04AE754E46D857E858F8598890E94BE
S11309F0EA0EDC01CB019E0126583F4FF9018083AA
S1130A009183A283B3838E0102581F4FCE0186586F
S1130A109F4F20E030E04AE753E4FC01608171819C
S1130A20828193810E940510DC01CB01F80180834F
S1130A309183A283B383CE0182589F4F20E030E09C
S1130A4040E85FE3FC0160817181828193810E94AF
S1130A50E50E88234CF4CE018E579F4F21E030E001
S1130A60FC01318320836DC0CE0182589F4F20E06A
S1130A703FEF4FE757E4FC016081718182819381EC
S1130A800E94001018160CF04AC0CE0186589F4FE1
S1130A9020E030E040E251E4FC0160817181828118
S1130AA093810E940510DC01CB018E010E571F4F6C
S1130AB0BC01CD010E945C0FDC01CB01F8019183E4
S1130AC0808324C0CE018C579F4F29E130E0FC0184
S1130AD031832083CE018C579F4FFC01808191810B
S1130AE00197F1F79E012C573F4FF90191838083C1
S1130AF0CE018E579F4F9E012E573F4FF901208103
S1130B00318121503109FC0131832083CE018E577C
S1130B109F4FFC0180819181892BA1F67BC08E01BE
S1130B200E571F4FCE0182589F4FFC016081718187
S1130B30828193810E945C0FDC01CB01F8019183D7
S1130B408083CE018A579F4F9E012E573F4FF90154
S1130B5020813181FC0131832083CE018A579F4F4C
S1130B60FC01808191810197F1F79E012A573F4F43
S1130B70F901918380834EC0CE018F589F4F20E0AE
S1130B8030E04FE753E4FC016081718182819381FD
S1130B900E94001018166CF58E0108571F4FCE01E5
S1130BA08B589F4FFC0160817181828193810E94E7
S1130BB05C0FDC01CB01F80191838083CE01865761
S1130BC09F4F9E0128573F4FF90120813181FC013D
S1130BD031832083CE0186579F4FFC018081918110
S1130BE00197F1F79E0126573F4FF90191838083C6
S1130BF028C08E0107581F4FCE018F589F4FFC010C
S1130C0060817181828193810E945C0FDC01CB0140
S1130C10F8018083CE0184579F4F9E0127583F4F90
S1130C20F9012081FC012083CE0184579F4FFC01F0
S1130C308081282F2A95F1F7CE0184579F4FFC011C
S1130C40208360E082E00E94D80080E090E0A4E18C
S1130C50B2E4898B9A8BAB8BBC8B8E010B5A1F4FE2
S1130C602BEA3AEA4AEA5EE369897A898B899C89A4
S1130C700E940510DC01CB01F80180839183A283DB
S1130C80B3838E01075A1F4F20E030E040E85EE353
S1130C9069897A898B899C890E940510DC01CB01C2
S1130CA0F80180839183A283B383CE018B5A9F4F33
S1130CB020E030E040E85FE3FC01608171818281E3
S1130CC093810E94E50E88233CF4CE01835A9F4F02
S1130CD021E0FC0120832CC1CE01875A9F4F20E0E4
S1130CE03FEF4FE757E4FC0160817181828193817A
S1130CF00E94001018160CF0CDC020E030E04AE746
S1130D0054E469897A898B899C890E94EA0EDC0102
S1130D10CB019E01225A3F4FF90180839183A28324
S1130D20B3838E010E591F4FCE01825A9F4F20E08C
S1130D3030E04AE753E4FC01608171818281938150
S1130D400E940510DC01CB01F80180839183A2830A
S1130D50B383CE018E599F4F20E030E040E85FE33B
S1130D60FC0160817181828193810E94E50E882358
S1130D704CF4CE018A599F4F21E030E0FC013183CD
S1130D8020836DC0CE018E599F4F20E03FEF4FE787
S1130D9057E4FC0160817181828193810E9400107B
S1130DA018160CF04AC0CE01825A9F4F20E030E062
S1130DB040E251E4FC0160817181828193810E944F
S1130DC00510DC01CB018E010A591F4FBC01CD0176
S1130DD00E945C0FDC01CB01F8019183808324C065
S1130DE0CE0188599F4F29E130E0FC0131832083F3
S1130DF0CE0188599F4FFC01808191810197F1F7C1
S1130E009E0128593F4FF90191838083CE018A596D
S1130E109F4F9E012A593F4FF90120813181215072
S1130E203109FC0131832083CE018A599F4FFC0193
S1130E3080819181892BA1F67BC08E010A591F4FB5
S1130E40CE018E599F4FFC01608171818281938113
S1130E500E945C0FDC01CB01F80191838083CE01F9
S1130E6086599F4F9E012A593F4FF90120813181B4
S1130E70FC0131832083CE0186599F4FFC01808180
S1130E8091810197F1F79E0126593F4FF901918312
S1130E9080834EC0CE018B5A9F4F20E030E04FE755
S1130EA053E4FC0160817181828193810E9400106E
S1130EB018166CF58E0104591F4FCE01875A9F4FA7
S1130EC0FC0160817181828193810E945C0FDC014D
S1130ED0CB01F80191838083CE0182599F4F9E01FB
S1130EE024593F4FF90120813181FC013183208352
S1130EF0CE0182599F4FFC01808191810197F1F7C6
S1130F009E0122593F4FF9019183808328C08E01AD
S1130F10035A1F4FCE018B5A9F4FFC016081718190
S1130F20828193810E945C0FDC01CB01F8018083F4
S1130F30CE0180599F4F9E01235A3F4FF9012081D2
S1130F40FC012083CE0180599F4FFC018081282F12
S1130F502A95F1F7CE0180599F4FFC01208360E070
S1130F6088E20E941A0280E090E0A4E1B2E48D8B52
S1130F709E8BAF8BB88F2BEA3AEA4AEA5EE36D891F
S1130F807E898F89988D0E940510DC01CB0189AF81
S1130F909AAFABAFBCAF20E030E040E85EE36D89D0
S1130FA07E898F89988D0E940510DC01CB019E01FA
S1130FB0235C3F4FF90180839183A283B38320E0B4
S1130FC030E040E85FE369AD7AAD8BAD9CAD0E9443
S1130FD0E50E88233CF4CE018F5B9F4F21E0FC019A
S1130FE0208322C120E03FEF4FE757E4CE01CD96A6
S1130FF0FC0160817181828193810E940010181626
S11310000CF0CDC020E030E04AE754E46D897E89DD
S11310108F89988D0E94EA0EDC01CB019E012E5B24
S11310203F4FF90180839183A283B3838E010A5BCE
S11310301F4FCE018E5B9F4F20E030E04AE753E420
S1131040FC0160817181828193810E940510DC0121
S1131050CB01F80180839183A283B383CE018A5BA1
S11310609F4F20E030E040E85FE3FC016081718144
S1131070828193810E94E50E88234CF4CE01865B25
S11310809F4F21E030E0FC01318320836DC0CE010D
S11310908A5B9F4F20E03FEF4FE757E4FC016081FC
S11310A07181828193810E94001018160CF04AC04D
S11310B0CE018E5B9F4F20E030E040E251E4FC0122
S11310C060817181828193810E940510DC01CB01D2
S11310D08E01065B1F4FBC01CD010E945C0FDC0139
S11310E0CB01F8019183808324C0CE01845B9F4FA0
S11310F029E130E0FC0131832083CE01845B9F4FE2
S1131100FC01808191810197F1F79E01245B3F4F9F
S1131110F90191838083CE01865B9F4F9E01265BFC
S11311203F4FF9012081318121503109FC01318384
S11311302083CE01865B9F4FFC0180819181892BA6
S1131140A1F672C08E01065B1F4FCE018A5B9F4FD2
S1131150FC0160817181828193810E945C0FDC01BA
S1131160CB01F80191838083CE01825B9F4F9E0166
S1131170265B3F4FF90120813181FC0131832083BB
S1131180CE01825B9F4FFC01808191810197F1F731
S11311909E01225B3F4FF9019183808345C020E08B
S11311A030E04FE753E469AD7AAD8BAD9CAD0E945E
S11311B00010181664F58E01005B1F4FCE01CD960A
S11311C0FC0160817181828193810E945C0FDC014A
S11311D0CB01F80191838083CE018E5A9F4F9E01EB
S11311E0205B3F4FF90120813181FC013183208351
S11311F0CE018E5A9F4FFC01808191810197F1F7B6
S11312009E012E5A3F4FF9019183808324C08E01A1
S11312100F5B1F4F69AD7AAD8BAD9CAD0E945C0F27
S1131220DC01CB01F8018083CE018C5A9F4F9E01D3
S11312302F5B3F4FF9012081FC012083CE018C5AA2
S11312409F4FFC018081282F2A95F1F7CE018C5AFB
S11312509F4FFC01208360E088E00E941A0280E036
S113126090E0A4E1B2E4898F9A8FAB8FBC8F2BEA14
S11312703AEA4AEA5EE3698D7A8D8B8D9C8D0E94F1
S11312800510DC01CB018D8F9E8FAF8FB8A320E0BA
S113129030E040E85EE3698D7A8D8B8D9C8D0E94F1
S11312A00510DC01CB0189A39AA3ABA3BCA320E066
S11312B030E040E85FE36D8D7E8D8F8D98A10E94B4
S11312C0E50E88231CF481E08DA3B2C020E03FEF3B
S11312D04FE757E469A17AA18BA19CA10E94001059
S11312E018160CF07BC020E030E04AE754E4698D26
S11312F07A8D8B8D9C8D0E94EA0EDC01CB018EA32E
S11313009FA3A8A7B9A720E030E04AE753E46EA161
S11313107FA188A599A50E940510DC01CB018AA7AD
S11313209BA7ACA7BDA720E030E040E85FE36AA537
S11313307BA58CA59DA50E94E50E88232CF481E055
S113134090E09FA78EA73FC020E03FEF4FE757E410
S11313506AA57BA58CA59DA50E94001018164CF5C6
S113136020E030E040E251E46EA17FA188A599A578
S11313700E940510DC01CB01BC01CD010E945C0F71
S1131380DC01CB019FA78EA70FC089E190E099AB48
S113139088AB88A999A90197F1F799AB88AB8EA579
S11313A09FA501979FA78EA78EA59FA5892B69F757
S11313B03FC06AA57BA58CA59DA50E945C0FDC019E
S11313C0CB019FA78EA78EA59FA59BAB8AAB8AA9AD
S11313D09BA90197F1F79BAB8AAB2AC020E030E0D0
S11313E04FE753E46D8D7E8D8F8D98A10E94001080
S11313F01816ACF469A17AA18BA19CA10E945C0F80
S1131400DC01CB019DAB8CAB8CA99DA99FAB8EABB2
S11314108EA99FA90197F1F79FAB8EAB0FC06D8D7D
S11314207E8D8F8D98A10E945C0FDC01CB018DA372
S11314308DA188AF88AD8A95F1F788AF0000C655B5
S1131440DF4F0FB6F894DEBF0FBECDBFDF91CF9153
S11314501F910F9108950F931F93CF93DF93CDB7EF
S1131460DEB7C056D1090FB6F894DEBF0FBECDBFAC
S11314700E94320260E081E00E941A0280E090E063
S1131480A4E1B2E489839A83AB83BC838E010B5BB2
S11314901F4F2BEA3AEA4AEA5EE369817A818B813B
S11314A09C810E940510DC01CB01F80180839183AB
S11314B0A283B3838E01075B1F4F20E030E040E836
S11314C05EE369817A818B819C810E940510DC0135
S11314D0CB01F80180839183A283B383CE018B5B1C
S11314E09F4F20E030E040E85FE3FC0160817181C0
S11314F0828193810E94E50E88233CF4CE01835BB4
S11315009F4F21E0FC0120832CC1CE01875B9F4FBC
S113151020E03FEF4FE757E4FC0160817181828155
S113152093810E94001018160CF0CDC020E030E02A
S11315304AE754E469817A818B819C810E94EA0E96
S1131540DC01CB019E01225B3F4FF9018083918333
S1131550A283B3838E010E5A1F4FCE01825B9F4F2D
S113156020E030E04AE753E4FC016081718182812C
S113157093810E940510DC01CB01F80180839183E3
S1131580A283B383CE018E5A9F4F20E030E040E81F
S11315905FE3FC0160817181828193810E94E50E89
S11315A088234CF4CE018A5A9F4F21E030E0FC019D
S11315B0318320836DC0CE018E5A9F4F20E03FEFD0
S11315C04FE757E4FC0160817181828193810E941D
S11315D0001018160CF04AC0CE01825B9F4F20E029
S11315E030E040E251E4FC016081718182819381A9
S11315F00E940510DC01CB018E010A5A1F4FBC0169
S1131600CD010E945C0FDC01CB01F8019183808342
S113161024C0CE01885A9F4F29E130E0FC01318378
S11316202083CE01885A9F4FFC01808191810197CC
S1131630F1F79E01285A3F4FF90191838083CE012F
S11316408A5A9F4F9E012A5A3F4FF90120813181C6
S113165021503109FC0131832083CE018A5A9F4FE6
S1131660FC0180819181892BA1F67BC08E010A5AED
S11316701F4FCE018E5A9F4FFC0160817181828180
S113168093810E945C0FDC01CB01F801918380837C
S1131690CE01865A9F4F9E012A5A3F4FF90120815D
S11316A03181FC0131832083CE01865A9F4FFC0196
S11316B0808191810197F1F79E01265A3F4FF901EC
S11316C0918380834EC0CE018B5B9F4F20E030E03E
S11316D04FE753E4FC0160817181828193810E9410
S11316E0001018166CF58E01045A1F4FCE01875B4B
S11316F09F4FFC0160817181828193810E945C0F04
S1131700DC01CB01F80191838083CE01825A9F4F83
S11317109E01245A3F4FF90120813181FC0131831C
S11317202083CE01825A9F4FFC01808191810197D1
S1131730F1F79E01225A3F4FF9019183808328C01B
S11317408E01035B1F4FCE018B5B9F4FFC016081B9
S11317507181828193810E945C0FDC01CB01F801CD
S11317608083CE01805A9F4F9E01235B3F4FF90136
S11317702081FC012083CE01805A9F4FFC0180818F
S1131780282F2A95F1F7CE01805A9F4FFC01208320
S113179060E086E00E941A0280E090E0A4E1B2E4F6
S11317A08D839E83AF83B8872BEA3AEA4AEA5EE3E5
S11317B06D817E818F8198850E940510DC01CB01AB
S11317C089A79AA7ABA7BCA720E030E040E85EE376
S11317D06D817E818F8198850E940510DC01CB018B
S11317E08DA79EA7AFA7B8AB20E030E040E85FE349
S11317F069A57AA58BA59CA50E94E50E88231CF4F7
S113180081E089ABC6C020E03FEF4FE757E46DA508
S11318107EA58FA598A90E94001018160CF07BC015
S113182020E030E04AE754E46D817E818F81988521
S11318300E94EA0EDC01CB018AAB9BABACABBDAB27
S113184020E030E04AE753E46AA97BA98CA99DA96A
S11318500E940510DC01CB018EAB9FABA8AFB9AFE2
S113186020E030E040E85FE36EA97FA988AD99AD40
S11318700E94E50E88232CF481E090E09BAF8AAFB0
S11318803FC020E03FEF4FE757E46EA97FA988AD42
S113189099AD0E94001018164CF520E030E040E2AB
S11318A051E46AA97BA98CA99DA90E940510DC01B9
S11318B0CB01BC01CD010E945C0FDC01CB019BAFCD
S11318C08AAF0FC089E190E09DAF8CAF8CAD9DAD28
S11318D00197F1F79DAF8CAF8AAD9BAD01979BAF9C
S11318E08AAF8AAD9BAD892B69F753C06EA97FA9D6
S11318F088AD99AD0E945C0FDC01CB019BAF8AAF30
S11319008AAD9BAD9FAF8EAF8EAD9FAD0197F1F7C2
S11319109FAF8EAF3EC020E030E04FE753E469A5AF
S11319207AA58BA59CA50E94001018164CF58E0173
S1131930005C1F4F6DA57EA58FA598A90E945C0F22
S1131940DC01CB01F80191838083CE018E5B9F4F34
S11319509E01205C3F4FF90120813181FC013183DC
S11319602083CE018E5B9F4FFC0180819181019782
S1131970F1F79E012E5B3F4FF901918380831CC0D8
S113198069A57AA58BA59CA50E945C0FDC01CB01FF
S113199089ABCE018C5B9F4F29A9FC012083CE012A
S11319A08C5B9F4FFC018081282F2A95F1F7CE0193
S11319B08C5B9F4FFC01208360E08EE00E941A0242
S11319C080E090E0A4E1B2E489879A87AB87BC8782
S11319D02BEA3AEA4AEA5EE369857A858B859C8537
S11319E00E940510DC01CB018D879E87AF87B88BE1
S11319F020E030E040E85EE369857A858B859C854C
S1131A000E940510DC01CB01898B9A8BAB8BBC8BBC
S1131A1020E030E040E85FE36D857E858F8598891E
S1131A200E94E50E88231CF481E08D8BB2C020E077
S1131A303FEF4FE757E469897A898B899C890E9433
S1131A40001018160CF07BC020E030E04AE754E4A4
S1131A5069857A858B859C850E94EA0EDC01CB0121
S1131A608E8B9F8BA88FB98F20E030E04AE753E438
S1131A706E897F89888D998D0E940510DC01CB01C8
S1131A808A8F9B8FAC8FBD8F20E030E040E85FE30E
S1131A906A8D7B8D8C8D9D8D0E94E50E88232CF4A0
S1131AA081E090E09F8F8E8F3FC020E03FEF4FE7B3
S1131AB057E46A8D7B8D8C8D9D8D0E9400101816C5
S1131AC04CF520E030E040E251E46E897F89888D56
S1131AD0998D0E940510DC01CB01BC01CD010E944F
S1131AE05C0FDC01CB019F8F8E8F0FC089E190E0EA
S1131AF099A388A388A199A10197F1F799A388A331
S1131B008E8D9F8D01979F8F8E8F8E8D9F8D892BAC
S1131B1069F73FC06A8D7B8D8C8D9D8D0E945C0F13
S1131B20DC01CB019F8F8E8F8E8D9F8D9BA38AA30B
S1131B308AA19BA10197F1F79BA38AA32AC020E065
S1131B4030E04FE753E46D857E858F8598890E9448
S1131B5000101816ACF469897A898B899C890E94D3
S1131B605C0FDC01CB019DA38CA38CA19DA19FA341
S1131B708EA38EA19FA10197F1F79FA38EA30FC0FF
S1131B806D857E858F8598890E945C0FDC01CB0171
S1131B908D8B8D8988A788A58A95F1F788A7000081
S1131BA0C05ADF4F0FB6F894DEBF0FBECDBFDF9132
S1131BB0CF911F910F910895CF93DF93CDB7DEB7E7
S1131BC0A1970FB6F894DEBF0FBECDBF89A380E006
S1131BD090E0A4E1B2E489839A83AB83BC832BEACB
S1131BE03AEA4AEA5EE369817A818B819C810E94A8
S1131BF00510DC01CB018D839E83AF83B88720E081
S1131C0030E040E85EE369817A818B819C810E94A7
S1131C100510DC01CB0189879A87AB87BC8720E05C
S1131C2030E040E85FE36D817E818F8198850E947A
S1131C30E50E88231CF481E08D87B2C020E03FEFDD
S1131C404FE757E469857A858B859C850E9400104F
S1131C5018160CF07BC020E030E04AE754E46981B8
S1131C607A818B819C810E94EA0EDC01CB018E87F4
S1131C709F87A88BB98B20E030E04AE753E46E8558
S1131C807F85888999890E940510DC01CB018A8BA4
S1131C909B8BAC8BBD8B20E030E040E85FE36A892E
S1131CA07B898C899D890E94E50E88232CF481E030
S1131CB090E09F8B8E8B3FC020E03FEF4FE757E4CF
S1131CC06A897B898C899D890E94001018164CF5BD
S1131CD020E030E040E251E46E857F85888999896F
S1131CE00E940510DC01CB01BC01CD010E945C0FF8
S1131CF0DC01CB019F8B8E8B0FC089E190E0998F23
S1131D00888F888D998D0197F1F7998F888F8E89A7
S1131D109F8901979F8B8E8B8E899F89892B69F769
S1131D203FC06A897B898C899D890E945C0FDC0194
S1131D30CB019F8B8E8B8E899F899B8F8A8F8A8DF7
S1131D409B8D0197F1F79B8F8A8F2AC020E030E0AA
S1131D504FE753E46D817E818F8198850E94001046
S1131D601816ACF469857A858B859C850E945C0F76
S1131D70DC01CB019D8F8C8F8C8D9D8D9F8F8E8FE1
S1131D808E8D9F8D0197F1F79F8F8E8F0FC06D8180
S1131D907E818F8198850E945C0FDC01CB018D8749
S1131DA08D8588A388A18A95F1F788A361E089A12C
S1131DB00E941A0280E090E0A1960FB6F894DEBF6C
S1131DC00FBECDBFDF91CF9108950E948B0F08F411
S1131DD081E008950E94FE0E0C94C60F0E94BF0F6E
S1131DE058F00E94B80F40F029F45F3F29F00C949A
S1131DF0AF0F51110C94FA0F0C94B50F0E94D70F2A
S1131E0068F39923B1F3552391F3951B550BBB2725
S1131E10AA2762177307840738F09F5F5F4F220F6A
S1131E20331F441FAA1FA9F335D00E2E3AF0E0E861
S1131E3032D091505040E695001CCAF72BD0FE2FAB
S1131E4029D0660F771F881FBB1F2617370748073F
S1131E50AB07B0E809F0BB0B802DBF01FF279358F7
S1131E605F4F3AF09E3F510578F00C94AF0F0C94FD
S1131E70FA0F5F3FE4F3983ED4F386957795679520
S1131E80B795F7959F5FC9F7880F911D969587952C
S1131E9097F90895E1E0660F771F881FBB1F62174B
S1131EA073078407BA0720F0621B730B840BBA0B09
S1131EB0EE1F88F7E09508950E94DF0F88F09F5782
S1131EC098F0B92F9927B751B0F0E1F0660F771F5A
S1131ED0881F991F1AF0BA95C9F714C0B13091F050
S1131EE00E94F90FB1E008950C94F90F672F782F31
S1131EF08827B85F39F0B93FCCF386957795679515
S1131F00B395D9F73EF490958095709561957F4F80
S1131F108F4F9F4F0895990F0008550FAA0BE0E8C3
S1131F20FEEF16161706E807F907C0F01216130697
S1131F30E407F50798F0621B730B840B950B39F4D7
S1131F400A2661F0232B242B252B21F408950A263D
S1131F5009F4A140A6958FEF811D811D089597F97D
S1131F609F6780E870E060E008959FEF80EC08953B
S1131F7000240A9416161706180609060895002464
S1131F800A9412161306140605060895092E0394DE
S1131F90000C11F4882352F0BB0F40F4BF2B11F452
S1131FA060FF04C06F5F7F4F8F4F9F4F089557FDB1
S1131FB09058440F551F59F05F3F71F04795880FB3
S1131FC097FB991F61F09F3F79F08795089512164A
S1131FD013061406551FF2CF4695F1DF08C01616F6
S1131FE017061806991FF1CF8695710561050894A7
S1131FF00895E894BB2766277727CB0197F90895BE
S11320000E948B0F08F48FEF08950E9418100C940F
S1132010C60F0E94B80F38F00E94BF0F20F095231E
S113202011F00C94AF0F0C94B50F11240C94FA0F0B
S11320300E94D70F70F3959FC1F3950F50E0551F81
S1132040629FF001729FBB27F00DB11D639FAA2709
S1132050F00DB11DAA1F649F6627B00DA11D661F58
S1132060829F2227B00DA11D621F739FB00DA11D79
S1132070621F839FA00D611D221F749F3327A00D33
S1132080611D231F849F600D211D822F762F6A2FCF
S113209011249F5750409AF0F1F088234AF0EE0F34
S11320A0FF1FBB1F661F771F881F91505040A9F761
S11320B09E3F510580F00C94AF0F0C94FA0F5F3FD4
S11320C0E4F3983ED4F3869577956795B795F7959D
S11320D0E7959F5FC1F7FE2B880F911D9695879515
S10B20E097F90895F894FFCF6D
S9030000FC
